{
  "contractName": "EvenVote",
  "abi": [
    {
      "constant": true,
      "inputs": [
        {
          "internalType": "uint256",
          "name": "",
          "type": "uint256"
        }
      ],
      "name": "proposals",
      "outputs": [
        {
          "internalType": "string",
          "name": "title",
          "type": "string"
        },
        {
          "internalType": "string",
          "name": "content",
          "type": "string"
        },
        {
          "internalType": "uint256",
          "name": "vote_count",
          "type": "uint256"
        },
        {
          "internalType": "string",
          "name": "options",
          "type": "string"
        },
        {
          "internalType": "uint256",
          "name": "option1count1",
          "type": "uint256"
        },
        {
          "internalType": "uint256",
          "name": "option1count2",
          "type": "uint256"
        },
        {
          "internalType": "uint256",
          "name": "option1count3",
          "type": "uint256"
        },
        {
          "internalType": "bool",
          "name": "started",
          "type": "bool"
        },
        {
          "internalType": "uint256",
          "name": "idx",
          "type": "uint256"
        }
      ],
      "payable": false,
      "stateMutability": "view",
      "type": "function"
    },
    {
      "constant": true,
      "inputs": [],
      "name": "vote_num",
      "outputs": [
        {
          "internalType": "uint256",
          "name": "",
          "type": "uint256"
        }
      ],
      "payable": false,
      "stateMutability": "view",
      "type": "function"
    },
    {
      "constant": true,
      "inputs": [
        {
          "internalType": "uint256",
          "name": "",
          "type": "uint256"
        },
        {
          "internalType": "address",
          "name": "",
          "type": "address"
        }
      ],
      "name": "voted_map",
      "outputs": [
        {
          "internalType": "bool",
          "name": "",
          "type": "bool"
        }
      ],
      "payable": false,
      "stateMutability": "view",
      "type": "function"
    },
    {
      "constant": false,
      "inputs": [
        {
          "internalType": "string",
          "name": "title",
          "type": "string"
        },
        {
          "internalType": "string",
          "name": "body",
          "type": "string"
        },
        {
          "internalType": "string",
          "name": "_options",
          "type": "string"
        }
      ],
      "name": "add_proposal",
      "outputs": [],
      "payable": false,
      "stateMutability": "nonpayable",
      "type": "function"
    },
    {
      "constant": false,
      "inputs": [
        {
          "internalType": "uint256",
          "name": "_id",
          "type": "uint256"
        },
        {
          "internalType": "uint256",
          "name": "option",
          "type": "uint256"
        }
      ],
      "name": "vote",
      "outputs": [],
      "payable": false,
      "stateMutability": "nonpayable",
      "type": "function"
    }
  ],
  "bytecode": "0x6080604052600160025534801561001557600080fd5b50610c3b806100256000396000f3fe608060405234801561001057600080fd5b50600436106100575760003560e01c8063013cf08b1461005c5780632390fee3146102095780632bce7137146103f257806340ca846d14610458578063b384abef14610476575b600080fd5b6100886004803603602081101561007257600080fd5b81019080803590602001909291905050506104ae565b6040518080602001806020018a8152602001806020018981526020018881526020018781526020018615151515815260200185815260200184810384528d818151815260200191508051906020019080838360005b838110156100f85780820151818401526020810190506100dd565b50505050905090810190601f1680156101255780820380516001836020036101000a031916815260200191505b5084810383528c818151815260200191508051906020019080838360005b8381101561015e578082015181840152602081019050610143565b50505050905090810190601f16801561018b5780820380516001836020036101000a031916815260200191505b5084810382528a818151815260200191508051906020019080838360005b838110156101c45780820151818401526020810190506101a9565b50505050905090810190601f1680156101f15780820380516001836020036101000a031916815260200191505b509c5050505050505050505050505060405180910390f35b6103f06004803603606081101561021f57600080fd5b810190808035906020019064010000000081111561023c57600080fd5b82018360208201111561024e57600080fd5b8035906020019184600183028401116401000000008311171561027057600080fd5b91908080601f016020809104026020016040519081016040528093929190818152602001838380828437600081840152601f19601f820116905080830192505050505050509192919290803590602001906401000000008111156102d357600080fd5b8201836020820111156102e557600080fd5b8035906020019184600183028401116401000000008311171561030757600080fd5b91908080601f016020809104026020016040519081016040528093929190818152602001838380828437600081840152601f19601f8201169050808301925050505050505091929192908035906020019064010000000081111561036a57600080fd5b82018360208201111561037c57600080fd5b8035906020019184600183028401116401000000008311171561039e57600080fd5b91908080601f016020809104026020016040519081016040528093929190818152602001838380828437600081840152601f19601f8201169050808301925050505050505091929192905050506106d1565b005b61043e6004803603604081101561040857600080fd5b8101908080359060200190929190803573ffffffffffffffffffffffffffffffffffffffff16906020019092919050505061082c565b604051808215151515815260200191505060405180910390f35b61046061085b565b6040518082815260200191505060405180910390f35b6104ac6004803603604081101561048c57600080fd5b810190808035906020019092919080359060200190929190505050610861565b005b6000602052806000526040600020600091509050806000018054600181600116156101000203166002900480601f01602080910402602001604051908101604052809291908181526020018280546001816001161561010002031660029004801561055a5780601f1061052f5761010080835404028352916020019161055a565b820191906000526020600020905b81548152906001019060200180831161053d57829003601f168201915b505050505090806001018054600181600116156101000203166002900480601f0160208091040260200160405190810160405280929190818152602001828054600181600116156101000203166002900480156105f85780601f106105cd576101008083540402835291602001916105f8565b820191906000526020600020905b8154815290600101906020018083116105db57829003601f168201915b505050505090806002015490806003018054600181600116156101000203166002900480601f01602080910402602001604051908101604052809291908181526020018280546001816001161561010002031660029004801561069c5780601f106106715761010080835404028352916020019161069c565b820191906000526020600020905b81548152906001019060200180831161067f57829003601f168201915b5050505050908060040154908060050154908060060154908060070160009054906101000a900460ff16908060080154905089565b82600080600254815260200190815260200160002060000190805190602001906106fc929190610b61565b508160008060025481526020019081526020016000206001019080519060200190610728929190610b61565b5060008060006002548152602001908152602001600020600201819055506001600080600254815260200190815260200160002060070160006101000a81548160ff02191690831515021790555080600080600254815260200190815260200160002060030190805190602001906107a1929190610b61565b5060008060006002548152602001908152602001600020600401819055506000806000600254815260200190815260200160002060050181905550600080600060025481526020019081526020016000206006018190555060025460008060025481526020019081526020016000206008018190555060026000815460010191905081905550505050565b60016020528160005260406000206020528060005260406000206000915091509054906101000a900460ff1681565b60025481565b60008083815260200190815260200160002060070160009054906101000a900460ff166108f6576040517f08c379a00000000000000000000000000000000000000000000000000000000081526004018080602001828103825260028152602001807f4e4100000000000000000000000000000000000000000000000000000000000081525060200191505060405180910390fd5b6001600083815260200190815260200160002060003373ffffffffffffffffffffffffffffffffffffffff1673ffffffffffffffffffffffffffffffffffffffff16815260200190815260200160002060009054906101000a900460ff16156109c7576040517f08c379a00000000000000000000000000000000000000000000000000000000081526004018080602001828103825260058152602001807f566f74656400000000000000000000000000000000000000000000000000000081525060200191505060405180910390fd5b60038110610a3d576040517f08c379a000000000000000000000000000000000000000000000000000000000815260040180806020018281038252600e8152602001807f496e76616c6964206f7074696f6e00000000000000000000000000000000000081525060200191505060405180910390fd5b6000811415610a6f57600160008084815260200190815260200160002060040160008282540192505081905550610ad1565b6001811415610aa157600160008084815260200190815260200160002060050160008282540192505081905550610ad0565b6002811415610acf576001600080848152602001908152602001600020600601600082825401925050819055505b5b5b600160008084815260200190815260200160002060020160008282540192505081905550600180600084815260200190815260200160002060003373ffffffffffffffffffffffffffffffffffffffff1673ffffffffffffffffffffffffffffffffffffffff16815260200190815260200160002060006101000a81548160ff0219169083151502179055505050565b828054600181600116156101000203166002900490600052602060002090601f016020900481019282601f10610ba257805160ff1916838001178555610bd0565b82800160010185558215610bd0579182015b82811115610bcf578251825591602001919060010190610bb4565b5b509050610bdd9190610be1565b5090565b610c0391905b80821115610bff576000816000905550600101610be7565b5090565b9056fea265627a7a7231582006ce54ed4a7401b67721e76ea5f4e5d0349bb1aa9e32a433ad1a7801bb2e427264736f6c63430005100032",
  "source": "pragma solidity >=0.4.21 <0.7.0;\n// APS 1050 PROJECT\n// D-VOTING\n// YANGFAN LI\n// 1003152982\n\n// Simple event\ncontract EvenVote {\n\n\tstruct Proposal {\n\t\tstring title;\n\t\tstring content;\n\t\tuint vote_count;\n\t\tstring options;\n\t\tuint option1count1;\n\t\tuint option1count2;\n\t\tuint option1count3;\n\t\tbool started;\n\t\tuint idx;\n\t}\n\n\tmapping(uint=>Proposal) public proposals;\n\tmapping(uint=>mapping(address=>bool)) public voted_map;\n\tuint public vote_num = 1;\n\n\tfunction add_proposal(string memory title, string memory body, string memory _options) public {\n\t\tproposals[vote_num].title = title;\n\t\tproposals[vote_num].content = body;\n\t\tproposals[vote_num].vote_count = 0;\n\t\tproposals[vote_num].started = true;\n\t\tproposals[vote_num].options = _options;\n\t\tproposals[vote_num].option1count1 = 0;\n\t\tproposals[vote_num].option1count2 = 0;\n\t\tproposals[vote_num].option1count3 = 0;\n\t\tproposals[vote_num].idx = vote_num;\n\t\t++vote_num;\n\t}\n\n\tfunction vote(uint _id, uint option) public {\n\t\trequire(proposals[_id].started, \"NA\");\n\t\trequire(!voted_map[_id][msg.sender], \"Voted\");\n\t\trequire(option < 3, \"Invalid option\");\n\n\t\tif (option == 0) {\n\t\t\tproposals[_id].option1count1 += 1;\n\t\t} else if (option == 1) {\n\t\t\tproposals[_id].option1count2 += 1;\n\t\t} else if (option == 2) {\n\t\t\tproposals[_id].option1count3 += 1;\n\t\t}\n\n\t\tproposals[_id].vote_count += 1;\n\t\tvoted_map[_id][msg.sender] = true;\n\t}\n}\n\n// Event weight vote with block constraint\ncontract EvenWithBlockVote is EvenVote() {\n\n\tmapping(uint=>uint) public block_required;\n\n\tfunction add_proposal(string memory title, string memory body, string memory _options, uint block_num) public {\n\t\tproposals[vote_num].title = title;\n\t\tproposals[vote_num].content = body;\n\t\tproposals[vote_num].vote_count = 0;\n\t\tproposals[vote_num].started = true;\n\t\tproposals[vote_num].options = _options;\n\t\tproposals[vote_num].option1count1 = 0;\n\t\tproposals[vote_num].option1count2 = 0;\n\t\tproposals[vote_num].option1count3 = 0;\n\t\tblock_required[vote_num] = block_num;\n\t\tproposals[vote_num].idx = vote_num;\n\t\t++vote_num;\n\t}\n\n\tfunction vote(uint _id, uint option, uint _block) public {\n\t\trequire(proposals[_id].started, \"NA\");\n\t\trequire(!voted_map[_id][msg.sender], \"Voted\");\n\t\trequire(option < 3, \"Invalid option\");\n\t\trequire(_block < block_required[_id], \"Cannot vote\");\n\n\t\tif (option == 0) {\n\t\t\tproposals[_id].option1count1 += 1;\n\t\t} else if (option == 1) {\n\t\t\tproposals[_id].option1count2 += 1;\n\t\t} else if (option == 2) {\n\t\t\tproposals[_id].option1count3 += 1;\n\t\t}\n\n\t\tproposals[_id].vote_count += 1;\n\t\tvoted_map[_id][msg.sender] = true;\n\t}\n}\n\n// Event weight vote with balance constraint\ncontract EvenWithMinBalanceVote is EvenVote() {\n\n\tmapping(uint=>uint) public min_balance;\n\n\tfunction add_proposal(string memory title, string memory body, string memory _options, uint min_b) public {\n\t\tproposals[vote_num].title = title;\n\t\tproposals[vote_num].content = body;\n\t\tproposals[vote_num].vote_count = 0;\n\t\tproposals[vote_num].started = true;\n\t\tproposals[vote_num].options = _options;\n\t\tproposals[vote_num].option1count1 = 0;\n\t\tproposals[vote_num].option1count2 = 0;\n\t\tproposals[vote_num].option1count3 = 0;\n\t\tproposals[vote_num].idx = vote_num;\n\t\tmin_balance[vote_num] = min_b;\n\t\t++vote_num;\n\t}\n\n\tfunction vote(uint _id, uint option) public {\n\t\trequire(proposals[_id].started, \"NA\");\n\t\trequire(!voted_map[_id][msg.sender], \"Voted\");\n\t\trequire(option < 3, \"Invalid option\");\n\t\trequire(msg.sender.balance > min_balance[_id], \"Cannot vote\");\n\n\t\tif (option == 0) {\n\t\t\tproposals[_id].option1count1 += 1;\n\t\t} else if (option == 1) {\n\t\t\tproposals[_id].option1count2 += 1;\n\t\t} else if (option == 2) {\n\t\t\tproposals[_id].option1count3 += 1;\n\t\t}\n\n\t\tproposals[_id].vote_count += 1;\n\t\tvoted_map[_id][msg.sender] = true;\n\t}\n}\n\n// Balance weight vote\ncontract BalanceVote is EvenVote() {\n\n\tfunction vote(uint _id, uint option) public {\n\t\trequire(proposals[_id].started, \"NA\");\n\t\trequire(!voted_map[_id][msg.sender], \"Voted\");\n\t\trequire(option < 3, \"Invalid option\");\n\n\t\tif (option == 0) {\n\t\t\tproposals[_id].option1count1 += msg.sender.balance / (1 ether);\n\t\t} else if (option == 1) {\n\t\t\tproposals[_id].option1count2 += msg.sender.balance / (1 ether);\n\t\t} else if (option == 2) {\n\t\t\tproposals[_id].option1count3 += msg.sender.balance / (1 ether);\n\t\t}\n\n\t\tproposals[_id].vote_count +=1;\n\t\tvoted_map[_id][msg.sender] = true;\n\t}\n}\n\n// Balance weight vote with block constraint\ncontract BalanceWithBlockVote is EvenWithBlockVote() {\n\n\tfunction vote(uint _id, uint option, uint _block) public {\n\t\trequire(proposals[_id].started, \"NA\");\n\t\trequire(!voted_map[_id][msg.sender], \"Voted\");\n\t\trequire(option < 3, \"Invalid option\");\n\t\trequire(_block < block_required[_id], \"Cannot vote\");\n\n\t\tif (option == 0) {\n\t\t\tproposals[_id].option1count1 += msg.sender.balance / (1 ether);\n\t\t} else if (option == 1) {\n\t\t\tproposals[_id].option1count2 += msg.sender.balance / (1 ether);\n\t\t} else if (option == 2) {\n\t\t\tproposals[_id].option1count3 += msg.sender.balance / (1 ether);\n\t\t}\n\n\t\tproposals[_id].vote_count += 1;\n\t\tvoted_map[_id][msg.sender] = true;\n\t}\n}\n\n// Balance weight vote with balance constraint\ncontract BalanceWithMinBalanceVote is EvenWithMinBalanceVote() {\n\n\tfunction vote(uint _id, uint option) public {\n\t\trequire(proposals[_id].started, \"NA\");\n\t\trequire(!voted_map[_id][msg.sender], \"Voted\");\n\t\trequire(option < 3, \"Invalid option\");\n\t\trequire(msg.sender.balance > min_balance[_id], \"Cannot vote\");\n\n\t\tif (option == 0) {\n\t\t\tproposals[_id].option1count1 += msg.sender.balance / (1 ether);\n\t\t} else if (option == 1) {\n\t\t\tproposals[_id].option1count2 += msg.sender.balance / (1 ether);\n\t\t} else if (option == 2) {\n\t\t\tproposals[_id].option1count3 += msg.sender.balance / (1 ether);\n\t\t}\n\n\t\tproposals[_id].vote_count += 1;\n\t\tvoted_map[_id][msg.sender] = true;\n\t}\n}\n",
  "sourcePath": "C:\\Users\\2777\\Desktop\\APS1050\\project\\contracts\\Vote.sol",
  "compiler": {
    "name": "solc",
    "version": "0.5.16+commit.9c3226ce.Emscripten.clang"
  },
  "schemaVersion": "3.4.3",
  "updatedAt": "2021-12-21T21:30:28.990Z",
  "networkType": "ethereum",
  "devdoc": {
    "methods": {}
  },
  "userdoc": {
    "methods": {}
  }
}